:100000000C9462000C948A000C948A000C948A0070
:100010000C948A000C948A000C948A000C948A0038
:100020000C948A000C948A000C948A000C948A0028
:100030000C948A000C948A000C948A000C948A0018
:100040000C9422020C948A000C9492020C946C0280
:100050000C948A000C948A000C948A000C948A00F8
:100060000C948A000C948A000000000024002700F1
:100070002A000000000023002600290000000000E4
:10008000250028002B0004040404040404040202D4
:100090000202020203030303030301020408102007
:1000A0004080010204081020010204081020000012
:1000B0000008000201000003040700000000000027
:1000C0000000500411241FBECFEFD8E0DEBFCDBF2B
:1000D00011E0A0E0B1E0E6E9F9E002C005900D9280
:1000E000A831B107D9F721E0A8E1B1E001C01D9224
:1000F000AE3BB207E1F710E0C2E6D0E004C02197C2
:10010000FE010E94BE04C136D107C9F70E9409034F
:100110000C94C9040C94000090E0FC01E255FF4FE0
:100120002491FC01E656FF4F3491FC01EA57FF4F42
:10013000E491EE2309F43CC0222339F1233091F0FD
:1001400038F42130A9F0223001F584B58F7D12C03A
:10015000273091F02830A1F02430B9F4809180004C
:100160008F7D03C0809180008F77809380000DC0C9
:1001700084B58F7784BD09C08091B0008F7703C0AC
:100180008091B0008F7D8093B000F0E0EE0FFF1FF4
:10019000E458FF4FA591B4919FB7F894611104C042
:1001A0008C913095382302C0EC913E2B3C939FBF3D
:1001B00008953FB7F89480911D0190911E01A09180
:1001C0001F01B091200126B5A89B05C02F3F19F053
:1001D0000196A11DB11D3FBFBA2FA92F982F8827C7
:1001E000820F911DA11DB11DBC01CD0142E0660F22
:1001F000771F881F991F4A95D1F70895CF92DF92F4
:10020000EF92FF920F931F93CF93DF936C017A01CC
:100210008B01C0E0D0E0CE15DF0581F0D8016D91F3
:100220008D01D601ED91FC910190F081E02DC60188
:100230000995892B11F02196EECF7E01C701DF9140
:10024000CF911F910F91FF90EF90DF90CF90089585
:10025000089580E090E00895FC01538D448D252F92
:1002600030E0842F90E0821B930B541710F0CF9650
:10027000089501970895FC01918D828D981761F082
:10028000828DDF01A80FB11D5D968C91928D9F5FCD
:100290009F73928F90E008958FEF9FEF0895FC0178
:1002A000918D828D981731F0828DE80FF11D858D2B
:1002B00090E008958FEF9FEF0895FC01918D228DBE
:1002C000892F90E0805C9F4F821B91098F73992743
:1002D000089581E291E00E945D0121E0892B09F4FB
:1002E00020E0822F0895FC01848DDF01A80FB11D4D
:1002F000A35ABF4F2C91848D90E001968F7399275C
:10030000848FA689B7892C93A089B1898C91837039
:1003100080648C93938D848D981306C00288F38932
:10032000E02D80818F7D80830895EF92FF920F935F
:100330001F93CF93DF93EC0181E0888F9B8D8C8D91
:10034000981305C0E889F989808185FD26C0F62EBD
:100350000B8D10E00F5F1F4F0F731127E02E8C8D58
:10036000E8120CC00FB607FCFACFE889F989808142
:1003700085FFF5CFCE010E947301F1CF8B8DFE0179
:10038000E80FF11DE35AFF4FF0829FB7F8940B8FEF
:10039000EA89FB89808180620AC09FB7F894EE8960
:1003A000FF896083E889F989808183708064808314
:1003B0009FBF81E090E0DF91CF911F910F91FF905F
:1003C000EF900895CF93DF93EC01888D8823C9F0D7
:1003D000EA89FB89808185FD05C0A889B9898C914E
:1003E00086FD0FC00FB607FCF5CF808185FFF2CFE9
:1003F000A889B9898C9185FFEDCFCE010E94730148
:10040000E7CFDF91CF91089580E090E0892B29F02C
:100410000E94690181110C9400000895009769F011
:10042000FC0101900020E9F73197AF01481B590BFF
:10043000BC0181E291E00C94FE0080E090E0089520
:100440000E94C4041F920F920FB60F9211242F9393
:100450003F938F939F93AF93BF9380911901909196
:100460001A01A0911B01B0911C013091180123E0E9
:10047000230F2D3720F40196A11DB11D05C026E8DC
:10048000230F0296A11DB11D20931801809319011D
:1004900090931A01A0931B01B0931C0180911D0140
:1004A00090911E01A0911F01B09120010196A11D04
:1004B000B11D80931D0190931E01A0931F01B09365
:1004C0002001BF91AF919F918F913F912F910F90FC
:1004D0000FBE0F901F9018951F920F920FB60F929C
:1004E00011242F933F934F935F936F937F938F9339
:1004F0009F93AF93BF93EF93FF9381E291E00E94AC
:100500007301FF91EF91BF91AF919F918F917F9177
:100510006F915F914F913F912F910F900FBE0F9070
:100520001F9018951F920F920FB60F9211242F93C0
:100530008F939F93EF93FF93E0913101F0913201FC
:100540008081E0913701F091380182FD12C09081E5
:1005500080913A018F5F8F7320913B01821751F098
:10056000E0913A01F0E0EF5DFE4F958F80933A0104
:1005700001C08081FF91EF919F918F912F910F90FA
:100580000FBE0F901F901895CF92DF92EF92FF92BF
:100590000F931F93E82FF92F05C00150110921096E
:1005A000310961F1908196239417B9F305C0015088
:1005B00011092109310911F1908196239413F7CF84
:1005C000C12CD12CE12CF12C0AC08FEFC81AD80A0B
:1005D000E80AF80A0C151D052E053F0579F0808103
:1005E0008623841791F36C2D7D2D8E2D9F2D1F91C9
:1005F0000F91FF90EF90DF90CF90089560E070E052
:1006000080E090E01F910F91FF90EF90DF90CF90EE
:100610000895CF93DF93CDB7DEB7A1970FB6F894C7
:10062000DEBF0FBECDBF789484B5826084BD84B533
:10063000816084BD85B5826085BD85B5816085BDDD
:1006400080916E00816080936E0010928100809195
:10065000810082608093810080918100816080931D
:100660008100809180008160809380008091B10042
:1006700084608093B1008091B00081608093B0006D
:1006800080917A00846080937A0080917A00826001
:1006900080937A0080917A00816080937A008091C3
:1006A0007A00806880937A001092C100E091310155
:1006B000F091320182E08083E0912D01F0912E01D2
:1006C0001082E0912F01F09130018FEC8083109225
:1006D0003901E0913501F091360186E08083E091A7
:1006E0003301F0913401808180618083E091330196
:1006F000F0913401808188608083E0913301F09132
:100700003401808180688083E0913301F09134016D
:1007100080818F7D8083EDE9F0E02491E9E8F0E0CD
:100720008491882399F090E0880F991FFC01E85983
:10073000FF4FA591B491FC01E458FF4F859194912E
:100740008FB7F894EC91E22BEC938FBFECE9F0E0DB
:100750002491E8E8F0E084918823C9F090E0880FC4
:10076000991FFC01E859FF4F45915491FC01E45851
:10077000FF4FA591B4919FB7F894FA01808120951D
:10078000822380838C91E22FE823EC939FBF28E89B
:10079000222E20E0322E3AE3832E912CA12CB12C74
:1007A00060E083E00E948C0083E090E00197F1F725
:1007B00061E083E00E948C0083E290E00197F1F712
:1007C00060E083E00E948C00ECE9F0E06491F101CC
:1007D0008491E82FF0E0EE0FFF1FEE58FF4F859158
:1007E000949100E412E42FE030E0462F0E94C4020E
:1007F000611571058105910549F0DC01CB01019678
:10080000A11DB11DBC01CD019F7003C060E070E06F
:10081000CB01A50194010E947D042A3031054105D8
:1008200051058CF419A2205D28A3CE0180960E9468
:100830000E0282E191E00E940E0285E191E00E94A9
:100840000E0261E001C060E08DE00E948C000E9419
:10085000D9002B013C0184E6C82ED12CE12CF12CCF
:100860000E94D900DC01CB0184199509A609B709BA
:10087000883E9340A105B10598F3F1E0CF1AD10865
:10088000E108F10828EE420E23E0521E611C711CA3
:10089000C114D104E104F10419F70E94040280CFCD
:1008A000E1E2F1E01382128288EE93E0A0E0B0E092
:1008B00084839583A683B78384E091E091838083CA
:1008C00085EC90E09587848784EC90E09787868715
:1008D00080EC90E0918B808B81EC90E0938B828B0D
:1008E00082EC90E0958B848B86EC90E0978B868BE6
:1008F000118E128E138E148E0895052E97FB1EF402
:1009000000940E94940457FD07D00E949C0407FCA9
:1009100003D04EF40C949404509540953095219555
:100920003F4F4F4F5F4F089590958095709561951B
:100930007F4F8F4F9F4F0895A1E21A2EAA1BBB1B1A
:10094000FD010DC0AA1FBB1FEE1FFF1FA217B3079B
:10095000E407F50720F0A21BB30BE40BF50B661FB1
:10096000771F881F991F1A9469F760957095809575
:1009700090959B01AC01BD01CF010895EE0FFF1FC3
:100980000590F491E02D099481E090E0F8940C94A6
:06099000C904F894FFCF3A
:10099600000000009501FE002C01E2015D013B0113
:0809A6004F01636D000D0A0012
:00000001FF
